{
  "_format": "hh-sol-artifact-1",
  "contractName": "Optimism7683",
  "sourceName": "src/Optimism7683.sol",
  "abi": [
    {
      "inputs": [
        {
          "internalType": "address",
          "name": "_permit2",
          "type": "address"
        }
      ],
      "stateMutability": "nonpayable",
      "type": "constructor"
    },
    {
      "inputs": [],
      "name": "InvalidDestinationContract",
      "type": "error"
    },
    {
      "inputs": [],
      "name": "InvalidDomain",
      "type": "error"
    },
    {
      "inputs": [],
      "name": "InvalidGaslessOrderOrigin",
      "type": "error"
    },
    {
      "inputs": [],
      "name": "InvalidGaslessOrderSettler",
      "type": "error"
    },
    {
      "inputs": [],
      "name": "InvalidNativeAmount",
      "type": "error"
    },
    {
      "inputs": [],
      "name": "InvalidNonce",
      "type": "error"
    },
    {
      "inputs": [],
      "name": "InvalidOrderDomain",
      "type": "error"
    },
    {
      "inputs": [],
      "name": "InvalidOrderId",
      "type": "error"
    },
    {
      "inputs": [],
      "name": "InvalidOrderOrigin",
      "type": "error"
    },
    {
      "inputs": [],
      "name": "InvalidOrderStatus",
      "type": "error"
    },
    {
      "inputs": [
        {
          "internalType": "bytes32",
          "name": "orderType",
          "type": "bytes32"
        }
      ],
      "name": "InvalidOrderType",
      "type": "error"
    },
    {
      "inputs": [
        {
          "internalType": "uint32",
          "name": "originDomain",
          "type": "uint32"
        }
      ],
      "name": "InvalidOriginDomain",
      "type": "error"
    },
    {
      "inputs": [],
      "name": "InvalidSender",
      "type": "error"
    },
    {
      "inputs": [],
      "name": "OrderFillExpired",
      "type": "error"
    },
    {
      "inputs": [],
      "name": "OrderFillNotExpired",
      "type": "error"
    },
    {
      "inputs": [],
      "name": "OrderOpenExpired",
      "type": "error"
    },
    {
      "anonymous": false,
      "inputs": [
        {
          "indexed": true,
          "internalType": "uint256",
          "name": "chainId",
          "type": "uint256"
        },
        {
          "indexed": false,
          "internalType": "address",
          "name": "contractAddress",
          "type": "address"
        }
      ],
      "name": "DestinationContractUpdated",
      "type": "event"
    },
    {
      "anonymous": false,
      "inputs": [
        {
          "indexed": false,
          "internalType": "bytes32",
          "name": "orderId",
          "type": "bytes32"
        },
        {
          "indexed": false,
          "internalType": "bytes",
          "name": "originData",
          "type": "bytes"
        },
        {
          "indexed": false,
          "internalType": "bytes",
          "name": "fillerData",
          "type": "bytes"
        }
      ],
      "name": "Filled",
      "type": "event"
    },
    {
      "anonymous": false,
      "inputs": [
        {
          "indexed": true,
          "internalType": "address",
          "name": "owner",
          "type": "address"
        },
        {
          "indexed": false,
          "internalType": "uint256",
          "name": "nonce",
          "type": "uint256"
        }
      ],
      "name": "NonceInvalidation",
      "type": "event"
    },
    {
      "anonymous": false,
      "inputs": [
        {
          "indexed": true,
          "internalType": "bytes32",
          "name": "orderId",
          "type": "bytes32"
        },
        {
          "components": [
            {
              "internalType": "address",
              "name": "user",
              "type": "address"
            },
            {
              "internalType": "uint256",
              "name": "originChainId",
              "type": "uint256"
            },
            {
              "internalType": "uint32",
              "name": "openDeadline",
              "type": "uint32"
            },
            {
              "internalType": "uint32",
              "name": "fillDeadline",
              "type": "uint32"
            },
            {
              "internalType": "bytes32",
              "name": "orderId",
              "type": "bytes32"
            },
            {
              "components": [
                {
                  "internalType": "bytes32",
                  "name": "token",
                  "type": "bytes32"
                },
                {
                  "internalType": "uint256",
                  "name": "amount",
                  "type": "uint256"
                },
                {
                  "internalType": "bytes32",
                  "name": "recipient",
                  "type": "bytes32"
                },
                {
                  "internalType": "uint256",
                  "name": "chainId",
                  "type": "uint256"
                }
              ],
              "internalType": "struct Output[]",
              "name": "maxSpent",
              "type": "tuple[]"
            },
            {
              "components": [
                {
                  "internalType": "bytes32",
                  "name": "token",
                  "type": "bytes32"
                },
                {
                  "internalType": "uint256",
                  "name": "amount",
                  "type": "uint256"
                },
                {
                  "internalType": "bytes32",
                  "name": "recipient",
                  "type": "bytes32"
                },
                {
                  "internalType": "uint256",
                  "name": "chainId",
                  "type": "uint256"
                }
              ],
              "internalType": "struct Output[]",
              "name": "minReceived",
              "type": "tuple[]"
            },
            {
              "components": [
                {
                  "internalType": "uint256",
                  "name": "destinationChainId",
                  "type": "uint256"
                },
                {
                  "internalType": "bytes32",
                  "name": "destinationSettler",
                  "type": "bytes32"
                },
                {
                  "internalType": "bytes",
                  "name": "originData",
                  "type": "bytes"
                }
              ],
              "internalType": "struct FillInstruction[]",
              "name": "fillInstructions",
              "type": "tuple[]"
            }
          ],
          "indexed": false,
          "internalType": "struct ResolvedCrossChainOrder",
          "name": "resolvedOrder",
          "type": "tuple"
        }
      ],
      "name": "Open",
      "type": "event"
    },
    {
      "anonymous": false,
      "inputs": [
        {
          "indexed": true,
          "internalType": "address",
          "name": "previousOwner",
          "type": "address"
        },
        {
          "indexed": true,
          "internalType": "address",
          "name": "newOwner",
          "type": "address"
        }
      ],
      "name": "OwnershipTransferred",
      "type": "event"
    },
    {
      "anonymous": false,
      "inputs": [
        {
          "indexed": false,
          "internalType": "bytes32[]",
          "name": "orderIds",
          "type": "bytes32[]"
        }
      ],
      "name": "Refund",
      "type": "event"
    },
    {
      "anonymous": false,
      "inputs": [
        {
          "indexed": false,
          "internalType": "bytes32",
          "name": "orderId",
          "type": "bytes32"
        },
        {
          "indexed": false,
          "internalType": "address",
          "name": "receiver",
          "type": "address"
        }
      ],
      "name": "Refunded",
      "type": "event"
    },
    {
      "anonymous": false,
      "inputs": [
        {
          "indexed": false,
          "internalType": "bytes32[]",
          "name": "orderIds",
          "type": "bytes32[]"
        },
        {
          "indexed": false,
          "internalType": "bytes[]",
          "name": "ordersFillerData",
          "type": "bytes[]"
        }
      ],
      "name": "Settle",
      "type": "event"
    },
    {
      "anonymous": false,
      "inputs": [
        {
          "indexed": false,
          "internalType": "bytes32",
          "name": "orderId",
          "type": "bytes32"
        },
        {
          "indexed": false,
          "internalType": "address",
          "name": "receiver",
          "type": "address"
        }
      ],
      "name": "Settled",
      "type": "event"
    },
    {
      "inputs": [],
      "name": "FILLED",
      "outputs": [
        {
          "internalType": "bytes32",
          "name": "",
          "type": "bytes32"
        }
      ],
      "stateMutability": "view",
      "type": "function"
    },
    {
      "inputs": [],
      "name": "OPENED",
      "outputs": [
        {
          "internalType": "bytes32",
          "name": "",
          "type": "bytes32"
        }
      ],
      "stateMutability": "view",
      "type": "function"
    },
    {
      "inputs": [],
      "name": "PERMIT2",
      "outputs": [
        {
          "internalType": "contract IPermit2",
          "name": "",
          "type": "address"
        }
      ],
      "stateMutability": "view",
      "type": "function"
    },
    {
      "inputs": [],
      "name": "REFUNDED",
      "outputs": [
        {
          "internalType": "bytes32",
          "name": "",
          "type": "bytes32"
        }
      ],
      "stateMutability": "view",
      "type": "function"
    },
    {
      "inputs": [],
      "name": "RESOLVED_CROSS_CHAIN_ORDER_TYPEHASH",
      "outputs": [
        {
          "internalType": "bytes32",
          "name": "",
          "type": "bytes32"
        }
      ],
      "stateMutability": "view",
      "type": "function"
    },
    {
      "inputs": [],
      "name": "SETTLED",
      "outputs": [
        {
          "internalType": "bytes32",
          "name": "",
          "type": "bytes32"
        }
      ],
      "stateMutability": "view",
      "type": "function"
    },
    {
      "inputs": [],
      "name": "UNKNOWN",
      "outputs": [
        {
          "internalType": "bytes32",
          "name": "",
          "type": "bytes32"
        }
      ],
      "stateMutability": "view",
      "type": "function"
    },
    {
      "inputs": [
        {
          "internalType": "uint256",
          "name": "",
          "type": "uint256"
        }
      ],
      "name": "destinationContracts",
      "outputs": [
        {
          "internalType": "address",
          "name": "",
          "type": "address"
        }
      ],
      "stateMutability": "view",
      "type": "function"
    },
    {
      "inputs": [
        {
          "internalType": "uint32",
          "name": "",
          "type": "uint32"
        }
      ],
      "name": "domainToChainId",
      "outputs": [
        {
          "internalType": "uint256",
          "name": "",
          "type": "uint256"
        }
      ],
      "stateMutability": "view",
      "type": "function"
    },
    {
      "inputs": [
        {
          "internalType": "bytes32",
          "name": "_orderId",
          "type": "bytes32"
        },
        {
          "internalType": "bytes",
          "name": "_originData",
          "type": "bytes"
        },
        {
          "internalType": "bytes",
          "name": "_fillerData",
          "type": "bytes"
        }
      ],
      "name": "fill",
      "outputs": [],
      "stateMutability": "payable",
      "type": "function"
    },
    {
      "inputs": [
        {
          "internalType": "bytes32",
          "name": "orderId",
          "type": "bytes32"
        }
      ],
      "name": "filledOrders",
      "outputs": [
        {
          "internalType": "bytes",
          "name": "originData",
          "type": "bytes"
        },
        {
          "internalType": "bytes",
          "name": "fillerData",
          "type": "bytes"
        }
      ],
      "stateMutability": "view",
      "type": "function"
    },
    {
      "inputs": [
        {
          "internalType": "uint32",
          "name": "_messageOrigin",
          "type": "uint32"
        },
        {
          "internalType": "bytes32",
          "name": "_messageSender",
          "type": "bytes32"
        },
        {
          "internalType": "bytes",
          "name": "_message",
          "type": "bytes"
        }
      ],
      "name": "handleSettle",
      "outputs": [],
      "stateMutability": "nonpayable",
      "type": "function"
    },
    {
      "inputs": [
        {
          "internalType": "address",
          "name": "_owner",
          "type": "address"
        }
      ],
      "name": "initialize",
      "outputs": [],
      "stateMutability": "nonpayable",
      "type": "function"
    },
    {
      "inputs": [
        {
          "internalType": "uint256",
          "name": "_nonce",
          "type": "uint256"
        }
      ],
      "name": "invalidateNonces",
      "outputs": [],
      "stateMutability": "nonpayable",
      "type": "function"
    },
    {
      "inputs": [
        {
          "internalType": "address",
          "name": "_from",
          "type": "address"
        },
        {
          "internalType": "uint256",
          "name": "_nonce",
          "type": "uint256"
        }
      ],
      "name": "isValidNonce",
      "outputs": [
        {
          "internalType": "bool",
          "name": "",
          "type": "bool"
        }
      ],
      "stateMutability": "view",
      "type": "function"
    },
    {
      "inputs": [],
      "name": "localDomain",
      "outputs": [
        {
          "internalType": "uint32",
          "name": "",
          "type": "uint32"
        }
      ],
      "stateMutability": "view",
      "type": "function"
    },
    {
      "inputs": [],
      "name": "messenger",
      "outputs": [
        {
          "internalType": "contract IL2ToL2CrossDomainMessenger",
          "name": "",
          "type": "address"
        }
      ],
      "stateMutability": "view",
      "type": "function"
    },
    {
      "inputs": [
        {
          "components": [
            {
              "internalType": "uint32",
              "name": "fillDeadline",
              "type": "uint32"
            },
            {
              "internalType": "bytes32",
              "name": "orderDataType",
              "type": "bytes32"
            },
            {
              "internalType": "bytes",
              "name": "orderData",
              "type": "bytes"
            }
          ],
          "internalType": "struct OnchainCrossChainOrder",
          "name": "_order",
          "type": "tuple"
        }
      ],
      "name": "open",
      "outputs": [],
      "stateMutability": "payable",
      "type": "function"
    },
    {
      "inputs": [
        {
          "components": [
            {
              "internalType": "address",
              "name": "originSettler",
              "type": "address"
            },
            {
              "internalType": "address",
              "name": "user",
              "type": "address"
            },
            {
              "internalType": "uint256",
              "name": "nonce",
              "type": "uint256"
            },
            {
              "internalType": "uint256",
              "name": "originChainId",
              "type": "uint256"
            },
            {
              "internalType": "uint32",
              "name": "openDeadline",
              "type": "uint32"
            },
            {
              "internalType": "uint32",
              "name": "fillDeadline",
              "type": "uint32"
            },
            {
              "internalType": "bytes32",
              "name": "orderDataType",
              "type": "bytes32"
            },
            {
              "internalType": "bytes",
              "name": "orderData",
              "type": "bytes"
            }
          ],
          "internalType": "struct GaslessCrossChainOrder",
          "name": "_order",
          "type": "tuple"
        },
        {
          "internalType": "bytes",
          "name": "_signature",
          "type": "bytes"
        },
        {
          "internalType": "bytes",
          "name": "_originFillerData",
          "type": "bytes"
        }
      ],
      "name": "openFor",
      "outputs": [],
      "stateMutability": "nonpayable",
      "type": "function"
    },
    {
      "inputs": [
        {
          "internalType": "bytes32",
          "name": "orderId",
          "type": "bytes32"
        }
      ],
      "name": "openOrders",
      "outputs": [
        {
          "internalType": "bytes",
          "name": "orderData",
          "type": "bytes"
        }
      ],
      "stateMutability": "view",
      "type": "function"
    },
    {
      "inputs": [
        {
          "internalType": "bytes32",
          "name": "orderId",
          "type": "bytes32"
        }
      ],
      "name": "orderStatus",
      "outputs": [
        {
          "internalType": "bytes32",
          "name": "status",
          "type": "bytes32"
        }
      ],
      "stateMutability": "view",
      "type": "function"
    },
    {
      "inputs": [],
      "name": "owner",
      "outputs": [
        {
          "internalType": "address",
          "name": "",
          "type": "address"
        }
      ],
      "stateMutability": "view",
      "type": "function"
    },
    {
      "inputs": [
        {
          "components": [
            {
              "internalType": "uint32",
              "name": "fillDeadline",
              "type": "uint32"
            },
            {
              "internalType": "bytes32",
              "name": "orderDataType",
              "type": "bytes32"
            },
            {
              "internalType": "bytes",
              "name": "orderData",
              "type": "bytes"
            }
          ],
          "internalType": "struct OnchainCrossChainOrder[]",
          "name": "_orders",
          "type": "tuple[]"
        }
      ],
      "name": "refund",
      "outputs": [],
      "stateMutability": "payable",
      "type": "function"
    },
    {
      "inputs": [
        {
          "components": [
            {
              "internalType": "address",
              "name": "originSettler",
              "type": "address"
            },
            {
              "internalType": "address",
              "name": "user",
              "type": "address"
            },
            {
              "internalType": "uint256",
              "name": "nonce",
              "type": "uint256"
            },
            {
              "internalType": "uint256",
              "name": "originChainId",
              "type": "uint256"
            },
            {
              "internalType": "uint32",
              "name": "openDeadline",
              "type": "uint32"
            },
            {
              "internalType": "uint32",
              "name": "fillDeadline",
              "type": "uint32"
            },
            {
              "internalType": "bytes32",
              "name": "orderDataType",
              "type": "bytes32"
            },
            {
              "internalType": "bytes",
              "name": "orderData",
              "type": "bytes"
            }
          ],
          "internalType": "struct GaslessCrossChainOrder[]",
          "name": "_orders",
          "type": "tuple[]"
        }
      ],
      "name": "refund",
      "outputs": [],
      "stateMutability": "payable",
      "type": "function"
    },
    {
      "inputs": [],
      "name": "renounceOwnership",
      "outputs": [],
      "stateMutability": "nonpayable",
      "type": "function"
    },
    {
      "inputs": [
        {
          "components": [
            {
              "internalType": "uint32",
              "name": "fillDeadline",
              "type": "uint32"
            },
            {
              "internalType": "bytes32",
              "name": "orderDataType",
              "type": "bytes32"
            },
            {
              "internalType": "bytes",
              "name": "orderData",
              "type": "bytes"
            }
          ],
          "internalType": "struct OnchainCrossChainOrder",
          "name": "_order",
          "type": "tuple"
        }
      ],
      "name": "resolve",
      "outputs": [
        {
          "components": [
            {
              "internalType": "address",
              "name": "user",
              "type": "address"
            },
            {
              "internalType": "uint256",
              "name": "originChainId",
              "type": "uint256"
            },
            {
              "internalType": "uint32",
              "name": "openDeadline",
              "type": "uint32"
            },
            {
              "internalType": "uint32",
              "name": "fillDeadline",
              "type": "uint32"
            },
            {
              "internalType": "bytes32",
              "name": "orderId",
              "type": "bytes32"
            },
            {
              "components": [
                {
                  "internalType": "bytes32",
                  "name": "token",
                  "type": "bytes32"
                },
                {
                  "internalType": "uint256",
                  "name": "amount",
                  "type": "uint256"
                },
                {
                  "internalType": "bytes32",
                  "name": "recipient",
                  "type": "bytes32"
                },
                {
                  "internalType": "uint256",
                  "name": "chainId",
                  "type": "uint256"
                }
              ],
              "internalType": "struct Output[]",
              "name": "maxSpent",
              "type": "tuple[]"
            },
            {
              "components": [
                {
                  "internalType": "bytes32",
                  "name": "token",
                  "type": "bytes32"
                },
                {
                  "internalType": "uint256",
                  "name": "amount",
                  "type": "uint256"
                },
                {
                  "internalType": "bytes32",
                  "name": "recipient",
                  "type": "bytes32"
                },
                {
                  "internalType": "uint256",
                  "name": "chainId",
                  "type": "uint256"
                }
              ],
              "internalType": "struct Output[]",
              "name": "minReceived",
              "type": "tuple[]"
            },
            {
              "components": [
                {
                  "internalType": "uint256",
                  "name": "destinationChainId",
                  "type": "uint256"
                },
                {
                  "internalType": "bytes32",
                  "name": "destinationSettler",
                  "type": "bytes32"
                },
                {
                  "internalType": "bytes",
                  "name": "originData",
                  "type": "bytes"
                }
              ],
              "internalType": "struct FillInstruction[]",
              "name": "fillInstructions",
              "type": "tuple[]"
            }
          ],
          "internalType": "struct ResolvedCrossChainOrder",
          "name": "_resolvedOrder",
          "type": "tuple"
        }
      ],
      "stateMutability": "view",
      "type": "function"
    },
    {
      "inputs": [
        {
          "components": [
            {
              "internalType": "address",
              "name": "originSettler",
              "type": "address"
            },
            {
              "internalType": "address",
              "name": "user",
              "type": "address"
            },
            {
              "internalType": "uint256",
              "name": "nonce",
              "type": "uint256"
            },
            {
              "internalType": "uint256",
              "name": "originChainId",
              "type": "uint256"
            },
            {
              "internalType": "uint32",
              "name": "openDeadline",
              "type": "uint32"
            },
            {
              "internalType": "uint32",
              "name": "fillDeadline",
              "type": "uint32"
            },
            {
              "internalType": "bytes32",
              "name": "orderDataType",
              "type": "bytes32"
            },
            {
              "internalType": "bytes",
              "name": "orderData",
              "type": "bytes"
            }
          ],
          "internalType": "struct GaslessCrossChainOrder",
          "name": "_order",
          "type": "tuple"
        },
        {
          "internalType": "bytes",
          "name": "_originFillerData",
          "type": "bytes"
        }
      ],
      "name": "resolveFor",
      "outputs": [
        {
          "components": [
            {
              "internalType": "address",
              "name": "user",
              "type": "address"
            },
            {
              "internalType": "uint256",
              "name": "originChainId",
              "type": "uint256"
            },
            {
              "internalType": "uint32",
              "name": "openDeadline",
              "type": "uint32"
            },
            {
              "internalType": "uint32",
              "name": "fillDeadline",
              "type": "uint32"
            },
            {
              "internalType": "bytes32",
              "name": "orderId",
              "type": "bytes32"
            },
            {
              "components": [
                {
                  "internalType": "bytes32",
                  "name": "token",
                  "type": "bytes32"
                },
                {
                  "internalType": "uint256",
                  "name": "amount",
                  "type": "uint256"
                },
                {
                  "internalType": "bytes32",
                  "name": "recipient",
                  "type": "bytes32"
                },
                {
                  "internalType": "uint256",
                  "name": "chainId",
                  "type": "uint256"
                }
              ],
              "internalType": "struct Output[]",
              "name": "maxSpent",
              "type": "tuple[]"
            },
            {
              "components": [
                {
                  "internalType": "bytes32",
                  "name": "token",
                  "type": "bytes32"
                },
                {
                  "internalType": "uint256",
                  "name": "amount",
                  "type": "uint256"
                },
                {
                  "internalType": "bytes32",
                  "name": "recipient",
                  "type": "bytes32"
                },
                {
                  "internalType": "uint256",
                  "name": "chainId",
                  "type": "uint256"
                }
              ],
              "internalType": "struct Output[]",
              "name": "minReceived",
              "type": "tuple[]"
            },
            {
              "components": [
                {
                  "internalType": "uint256",
                  "name": "destinationChainId",
                  "type": "uint256"
                },
                {
                  "internalType": "bytes32",
                  "name": "destinationSettler",
                  "type": "bytes32"
                },
                {
                  "internalType": "bytes",
                  "name": "originData",
                  "type": "bytes"
                }
              ],
              "internalType": "struct FillInstruction[]",
              "name": "fillInstructions",
              "type": "tuple[]"
            }
          ],
          "internalType": "struct ResolvedCrossChainOrder",
          "name": "_resolvedOrder",
          "type": "tuple"
        }
      ],
      "stateMutability": "view",
      "type": "function"
    },
    {
      "inputs": [
        {
          "internalType": "uint256",
          "name": "chainId",
          "type": "uint256"
        },
        {
          "internalType": "address",
          "name": "contractAddress",
          "type": "address"
        }
      ],
      "name": "setDestinationContract",
      "outputs": [],
      "stateMutability": "nonpayable",
      "type": "function"
    },
    {
      "inputs": [
        {
          "internalType": "bytes32[]",
          "name": "_orderIds",
          "type": "bytes32[]"
        }
      ],
      "name": "settle",
      "outputs": [],
      "stateMutability": "payable",
      "type": "function"
    },
    {
      "inputs": [
        {
          "internalType": "address",
          "name": "newOwner",
          "type": "address"
        }
      ],
      "name": "transferOwnership",
      "outputs": [],
      "stateMutability": "nonpayable",
      "type": "function"
    },
    {
      "inputs": [
        {
          "internalType": "address",
          "name": "",
          "type": "address"
        },
        {
          "internalType": "uint256",
          "name": "",
          "type": "uint256"
        }
      ],
      "name": "usedNonces",
      "outputs": [
        {
          "internalType": "bool",
          "name": "",
          "type": "bool"
        }
      ],
      "stateMutability": "view",
      "type": "function"
    },
    {
      "inputs": [
        {
          "components": [
            {
              "internalType": "address",
              "name": "user",
              "type": "address"
            },
            {
              "internalType": "uint256",
              "name": "originChainId",
              "type": "uint256"
            },
            {
              "internalType": "uint32",
              "name": "openDeadline",
              "type": "uint32"
            },
            {
              "internalType": "uint32",
              "name": "fillDeadline",
              "type": "uint32"
            },
            {
              "internalType": "bytes32",
              "name": "orderId",
              "type": "bytes32"
            },
            {
              "components": [
                {
                  "internalType": "bytes32",
                  "name": "token",
                  "type": "bytes32"
                },
                {
                  "internalType": "uint256",
                  "name": "amount",
                  "type": "uint256"
                },
                {
                  "internalType": "bytes32",
                  "name": "recipient",
                  "type": "bytes32"
                },
                {
                  "internalType": "uint256",
                  "name": "chainId",
                  "type": "uint256"
                }
              ],
              "internalType": "struct Output[]",
              "name": "maxSpent",
              "type": "tuple[]"
            },
            {
              "components": [
                {
                  "internalType": "bytes32",
                  "name": "token",
                  "type": "bytes32"
                },
                {
                  "internalType": "uint256",
                  "name": "amount",
                  "type": "uint256"
                },
                {
                  "internalType": "bytes32",
                  "name": "recipient",
                  "type": "bytes32"
                },
                {
                  "internalType": "uint256",
                  "name": "chainId",
                  "type": "uint256"
                }
              ],
              "internalType": "struct Output[]",
              "name": "minReceived",
              "type": "tuple[]"
            },
            {
              "components": [
                {
                  "internalType": "uint256",
                  "name": "destinationChainId",
                  "type": "uint256"
                },
                {
                  "internalType": "bytes32",
                  "name": "destinationSettler",
                  "type": "bytes32"
                },
                {
                  "internalType": "bytes",
                  "name": "originData",
                  "type": "bytes"
                }
              ],
              "internalType": "struct FillInstruction[]",
              "name": "fillInstructions",
              "type": "tuple[]"
            }
          ],
          "internalType": "struct ResolvedCrossChainOrder",
          "name": "_resolvedOrder",
          "type": "tuple"
        }
      ],
      "name": "witnessHash",
      "outputs": [
        {
          "internalType": "bytes32",
          "name": "",
          "type": "bytes32"
        }
      ],
      "stateMutability": "pure",
      "type": "function"
    },
    {
      "inputs": [],
      "name": "witnessTypeString",
      "outputs": [
        {
          "internalType": "string",
          "name": "",
          "type": "string"
        }
      ],
      "stateMutability": "view",
      "type": "function"
    }
  ],
  "bytecode": "0x60e060405273420000000000000000000000000000000000002360a05263ffffffff461660c05234801561003257600080fd5b50604051614f55380380614f55833981016040819052610051916100bf565b6001600160a01b0381166080526100673361006d565b506100ef565b606280546001600160a01b038381166001600160a01b0319831681179093556040519116919082907f8be0079c531659141344cd1fd0a4f28419497f9722a3daafe3b4186f6b6457e090600090a35050565b6000602082840312156100d157600080fd5b81516001600160a01b03811681146100e857600080fd5b9392505050565b60805160a05160c051614e0661014f6000396000818161056a01528181610d5d0152818161125d01528181611e0f015281816127650152612a520152600081816102fc0152612f3f015260008181610451015261212c0152614e066000f3fe6080604052600436106101fe5760003560e01c806380bdaf031161011d578063abeaae5e116100b0578063e7f921a21161007f578063e92971f511610064578063e92971f5146106e8578063f2fde38b146106fb578063fd8a17791461071b57600080fd5b8063e7f921a2146106c2578063e917a962146106d557600080fd5b8063abeaae5e14610634578063b2aa6daf14610662578063be125c6914610682578063c4d66de8146106a257600080fd5b80638d3638f4116100ec5780638d3638f4146105585780638da5cb5b146105a157806394e15c8f146105cc578063aa23a8f41461060057600080fd5b806380bdaf03146104d157806382e2c43f14610505578063844fac8e14610518578063890affa11461053857600080fd5b8063432314a8116101955780636afdd850116101645780636afdd8501461043f578063715018a61461047357806374b9e8381461048857806374d707501461049d57600080fd5b8063432314a814610363578063578840b71461039757806366cb4581146103da5780636a8a68941461040757600080fd5b806322f888e7116101d157806322f888e71461029d5780632dff692d146102bd5780633cb747bf146102ea57806341b477dd1461034357600080fd5b80630647ee20146102035780630c78932d146102385780630cbd66e31461025b57806322bcd51a14610270575b600080fd5b34801561020f57600080fd5b5061022361021e3660046133ee565b610748565b60405190151581526020015b60405180910390f35b34801561024457600080fd5b5061024d600081565b60405190815260200161022f565b61026e610269366004613630565b610782565b005b34801561027c57600080fd5b5061029061028b366004613743565b610919565b60405161022f91906138d2565b3480156102a957600080fd5b5061026e6102b836600461399a565b6109a4565b3480156102c957600080fd5b5061024d6102d836600461399a565b60036020526000908152604090205481565b3480156102f657600080fd5b5061031e7f000000000000000000000000000000000000000000000000000000000000000081565b60405173ffffffffffffffffffffffffffffffffffffffff909116815260200161022f565b34801561034f57600080fd5b5061029061035e3660046139b3565b6109e6565b34801561036f57600080fd5b5061024d7f46494c4c4544000000000000000000000000000000000000000000000000000081565b3480156103a357600080fd5b5061031e6103b236600461399a565b60636020526000908152604090205473ffffffffffffffffffffffffffffffffffffffff1681565b3480156103e657600080fd5b506103fa6103f536600461399a565b610a6d565b60405161022f91906139ee565b34801561041357600080fd5b506102236104223660046133ee565b600060208181529281526040808220909352908152205460ff1681565b34801561044b57600080fd5b5061031e7f000000000000000000000000000000000000000000000000000000000000000081565b34801561047f57600080fd5b5061026e610b07565b34801561049457600080fd5b506103fa610b1b565b3480156104a957600080fd5b5061024d7f7327db8b590116bf2f02718793b098618aa0ba76cdb767248df105867b1b5ae381565b3480156104dd57600080fd5b5061024d7f534554544c45440000000000000000000000000000000000000000000000000081565b61026e610513366004613a01565b610b3a565b34801561052457600080fd5b5061026e610533366004613a7b565b610cb1565b34801561054457600080fd5b5061026e610553366004613acd565b610ec8565b34801561056457600080fd5b5061058c7f000000000000000000000000000000000000000000000000000000000000000081565b60405163ffffffff909116815260200161022f565b3480156105ad57600080fd5b5060625473ffffffffffffffffffffffffffffffffffffffff1661031e565b3480156105d857600080fd5b5061024d7f524546554e44454400000000000000000000000000000000000000000000000081565b34801561060c57600080fd5b5061024d7f4f50454e4544000000000000000000000000000000000000000000000000000081565b34801561064057600080fd5b5061065461064f36600461399a565b610f7b565b60405161022f929190613b29565b34801561066e57600080fd5b5061024d61067d366004613cc2565b6110a7565b34801561068e57600080fd5b5061026e61069d366004613dbf565b611121565b3480156106ae57600080fd5b5061026e6106bd366004613deb565b6111ff565b61026e6106d0366004613e06565b6112c2565b61026e6106e33660046139b3565b6115fb565b61026e6106f6366004613f26565b6117f6565b34801561070757600080fd5b5061026e610716366004613deb565b611952565b34801561072757600080fd5b5061024d610736366004613fca565b60646020526000908152604090205481565b73ffffffffffffffffffffffffffffffffffffffff821660009081526020818152604080832084845290915290205460ff16155b92915050565b6000815167ffffffffffffffff81111561079e5761079e613418565b6040519080825280602002602001820160405280156107c7578160200160208202803683370190505b50905060005b82518110156108d35760006107fa8483815181106107ed576107ed613fe7565b6020026020010151611a0e565b90508083838151811061080f5761080f613fe7565b60209081029190910181019190915260008281526003909152604090205415610864576040517f2916ae3300000000000000000000000000000000000000000000000000000000815260040160405180910390fd5b83828151811061087657610876613fe7565b60200260200101516000015163ffffffff1642116108c0576040517fc55d99c600000000000000000000000000000000000000000000000000000000815260040160405180910390fd5b506108cc600182614016565b90506107cd565b506108de8282611a22565b7f536286146d4af271695884c3088546e593d6165b08a2e29d706a87b7db74b2018160405161090d9190614081565b60405180910390a15050565b610986604051806101000160405280600073ffffffffffffffffffffffffffffffffffffffff16815260200160008152602001600063ffffffff168152602001600063ffffffff168152602001600080191681526020016060815260200160608152602001606081525090565b61099961099285614094565b8484611a50565b509095945050505050565b6109ae3382611af0565b60405181815233907f239b0d63832ec06e8082928dc583392b57a30d16e4bb425b49d82c7808e308b09060200160405180910390a250565b610a53604051806101000160405280600073ffffffffffffffffffffffffffffffffffffffff16815260200160008152602001600063ffffffff168152602001600063ffffffff168152602001600080191681526020016060815260200160608152602001606081525090565b610a64610a5f836140a0565b611bb2565b50909392505050565b60016020526000908152604090208054610a86906140ac565b80601f0160208091040260200160405190810160405280929190818152602001828054610ab2906140ac565b8015610aff5780601f10610ad457610100808354040283529160200191610aff565b820191906000526020600020905b815481529060010190602001808311610ae257829003601f168201915b505050505081565b610b0f611c4c565b610b196000611ccd565b565b604051806101c001604052806101a08152602001614c316101a0913981565b60008581526003602052604090205415610b80576040517f2916ae3300000000000000000000000000000000000000000000000000000000815260040160405180910390fd5b610b8d8585858585611d44565b6000858152600360209081526040918290207f46494c4c45440000000000000000000000000000000000000000000000000000905581516060601f870183900490920281018201835291820185815282918790879081908501838280828437600092019190915250505090825250604080516020601f860181900481028201810190925284815291810191908590859081908401838280828437600092018290525093909452505087815260026020526040902082519091508190610c529082614149565b5060208201516001820190610c679082614149565b509050507f57f1f65270c1c2c1771948825ee86f8d23d11ab44b16eb9c213056e042d06e598585858585604051610ca2959493929190614270565b60405180910390a15050505050565b610cc160a0860160808701613fca565b63ffffffff16421115610d00576040517f2bfdf69b00000000000000000000000000000000000000000000000000000000815260040160405180910390fd5b30610d0e6020870187613deb565b73ffffffffffffffffffffffffffffffffffffffff1614610d5b576040517f257cabd400000000000000000000000000000000000000000000000000000000815260040160405180910390fd5b7f000000000000000000000000000000000000000000000000000000000000000063ffffffff16856060013514610dbe576040517f0c73107e00000000000000000000000000000000000000000000000000000000815260040160405180910390fd5b60008080610dd5610dce89614094565b8686611a50565b9194509250905060c0880135610dee60e08a018a6142a9565b604051602001610e009392919061430e565b60408051601f19818403018152918152600084815260016020522090610e269082614149565b506000828152600360209081526040918290207f4f50454e454400000000000000000000000000000000000000000000000000009055610e7591610e6f91908b01908b01613deb565b82611af0565b610e868388888b6040013530611f2e565b817f3448bbc2203c608599ad448eeb1007cea04b788ac631f9f558e8dd01a3c27b3d84604051610eb691906138d2565b60405180910390a25050505050505050565b6000806000610ed785856121f2565b92509250925060005b8251811015610f71578315610f4557610f408888858481518110610f0657610f06613fe7565b6020026020010151858581518110610f2057610f20613fe7565b6020026020010151806020019051810190610f3b9190614328565b612210565b610f69565b610f698888858481518110610f5c57610f5c613fe7565b60200260200101516122e3565b600101610ee0565b5050505050505050565b600260205260009081526040902080548190610f96906140ac565b80601f0160208091040260200160405190810160405280929190818152602001828054610fc2906140ac565b801561100f5780601f10610fe45761010080835404028352916020019161100f565b820191906000526020600020905b815481529060010190602001808311610ff257829003601f168201915b505050505090806001018054611024906140ac565b80601f0160208091040260200160405190810160405280929190818152602001828054611050906140ac565b801561109d5780601f106110725761010080835404028352916020019161109d565b820191906000526020600020905b81548152906001019060200180831161108057829003601f168201915b5050505050905082565b60007f7327db8b590116bf2f02718793b098618aa0ba76cdb767248df105867b1b5ae382600001518360200151846040015185606001518660a001518760c001518860e00151604051602001611104989796959493929190614341565b604051602081830303815290604052805190602001209050919050565b611129611c4c565b73ffffffffffffffffffffffffffffffffffffffff8116611176576040517f526f946000000000000000000000000000000000000000000000000000000000815260040160405180910390fd5b60008281526063602090815260409182902080547fffffffffffffffffffffffff00000000000000000000000000000000000000001673ffffffffffffffffffffffffffffffffffffffff8516908117909155915191825283917fd25b6b34f91f5d785120ac3c2c90803e5b9cc9531c29249bed31a46d2d33a13f910160405180910390a25050565b73ffffffffffffffffffffffffffffffffffffffff811661124c576040517f526f946000000000000000000000000000000000000000000000000000000000815260040160405180910390fd5b61125581611ccd565b5063ffffffff7f00000000000000000000000000000000000000000000000000000000000000001660009081526064602090815260408083204690556063909152902080547fffffffffffffffffffffffff00000000000000000000000000000000000000001630179055565b60008167ffffffffffffffff8111156112dd576112dd613418565b60405190808252806020026020018201604052801561131057816020015b60608152602001906001900390816112fb5790505b50905060008267ffffffffffffffff81111561132e5761132e613418565b60405190808252806020026020018201604052801561136157816020015b606081526020019060019003908161134c5790505b50905060005b838110156115ad577f46494c4c45440000000000000000000000000000000000000000000000000000600360008787858181106113a6576113a6613fe7565b90506020020135815260200190815260200160002054146113f3576040517f2916ae3300000000000000000000000000000000000000000000000000000000815260040160405180910390fd5b6002600086868481811061140957611409613fe7565b905060200201358152602001908152602001600020600001805461142c906140ac565b80601f0160208091040260200160405190810160405280929190818152602001828054611458906140ac565b80156114a55780601f1061147a576101008083540402835291602001916114a5565b820191906000526020600020905b81548152906001019060200180831161148857829003601f168201915b50505050508382815181106114bc576114bc613fe7565b6020026020010181905250600260008686848181106114dd576114dd613fe7565b9050602002013581526020019081526020016000206001018054611500906140ac565b80601f016020809104026020016040519081016040528092919081815260200182805461152c906140ac565b80156115795780601f1061154e57610100808354040283529160200191611579565b820191906000526020600020905b81548152906001019060200180831161155c57829003601f168201915b505050505082828151811061159057611590613fe7565b60209081029190910101526115a6600182614016565b9050611367565b506115ba848484846123b6565b7fc993982486b74c2846b97472fb81c2ffe7b9b135062b8da6663d73886422fbad8484836040516115ed93929190614417565b60405180910390a150505050565b6000808061160b610a5f856140a0565b91945092509050602084013561162460408601866142a9565b6040516020016116369392919061430e565b60408051601f1981840301815291815260008481526001602052209061165c9082614149565b5060008281526003602052604090207f4f50454e4544000000000000000000000000000000000000000000000000000090556116983382611af0565b6000805b8460c001515181101561177d5760006116d58660c0015183815181106116c4576116c4613fe7565b60200260200101516000015161241b565b905073ffffffffffffffffffffffffffffffffffffffff8116611726578560c00151828151811061170857611708613fe7565b6020026020010151602001518361171f9190614016565b9250611774565b61177433308860c00151858151811061174157611741613fe7565b6020026020010151602001518473ffffffffffffffffffffffffffffffffffffffff166124c4909392919063ffffffff16565b5060010161169c565b508034146117b7576040517f44e8bd2c00000000000000000000000000000000000000000000000000000000815260040160405180910390fd5b827f3448bbc2203c608599ad448eeb1007cea04b788ac631f9f558e8dd01a3c27b3d856040516117e791906138d2565b60405180910390a25050505050565b6000815167ffffffffffffffff81111561181257611812613418565b60405190808252806020026020018201604052801561183b578160200160208202803683370190505b50905060005b825181101561194757600061186e84838151811061186157611861613fe7565b6020026020010151612582565b90508083838151811061188357611883613fe7565b602090810291909101810191909152600082815260039091526040902054156118d8576040517f2916ae3300000000000000000000000000000000000000000000000000000000815260040160405180910390fd5b8382815181106118ea576118ea613fe7565b602002602001015160a0015163ffffffff164211611934576040517fc55d99c600000000000000000000000000000000000000000000000000000000815260040160405180910390fd5b50611940600182614016565b9050611841565b506108de8282612596565b61195a611c4c565b73ffffffffffffffffffffffffffffffffffffffff8116611a02576040517f08c379a000000000000000000000000000000000000000000000000000000000815260206004820152602660248201527f4f776e61626c653a206e6577206f776e657220697320746865207a65726f206160448201527f646472657373000000000000000000000000000000000000000000000000000060648201526084015b60405180910390fd5b611a0b81611ccd565b50565b600061077c826020015183604001516125c0565b611a4c611a0b83600081518110611a3b57611a3b613fe7565b602002602001015160400151612623565b5050565b611abd604051806101000160405280600073ffffffffffffffffffffffffffffffffffffffff16815260200160008152602001600063ffffffff168152602001600063ffffffff168152602001600080191681526020016060815260200160608152602001606081525090565b600080611ae18660c00151876020015188608001518960a001518a60e001516126a3565b92509250925093509350939050565b73ffffffffffffffffffffffffffffffffffffffff821660009081526020818152604080832084845290915290205460ff1615611b59576040517f756688fe00000000000000000000000000000000000000000000000000000000815260040160405180910390fd5b73ffffffffffffffffffffffffffffffffffffffff9091166000908152602081815260408083209383529290522080547fffffffffffffffffffffffffffffffffffffffffffffffffffffffffffffff00166001179055565b611c1f604051806101000160405280600073ffffffffffffffffffffffffffffffffffffffff16815260200160008152602001600063ffffffff168152602001600063ffffffff168152602001600080191681526020016060815260200160608152602001606081525090565b600080611c3f84602001513363ffffffff876000015188604001516126a3565b9250925092509193909250565b60625473ffffffffffffffffffffffffffffffffffffffff163314610b19576040517f08c379a000000000000000000000000000000000000000000000000000000000815260206004820181905260248201527f4f776e61626c653a2063616c6c6572206973206e6f7420746865206f776e657260448201526064016119f9565b6062805473ffffffffffffffffffffffffffffffffffffffff8381167fffffffffffffffffffffffff0000000000000000000000000000000000000000831681179093556040519116919082907f8be0079c531659141344cd1fd0a4f28419497f9722a3daafe3b4186f6b6457e090600090a35050565b6000611d8585858080601f01602080910402602001604051908101604052809392919081815260200183838082843760009201919091525061262392505050565b9050611d9081612aba565b8614611dc8576040517f5d70603300000000000000000000000000000000000000000000000000000000815260040160405180910390fd5b80610140015163ffffffff16421115611e0d576040517f48d71b4400000000000000000000000000000000000000000000000000000000815260040160405180910390fd5b7f000000000000000000000000000000000000000000000000000000000000000063ffffffff1681610100015163ffffffff1614611e77576040517f710c117c00000000000000000000000000000000000000000000000000000000815260040160405180910390fd5b6000611e86826060015161241b565b90506000611e97836020015161241b565b905073ffffffffffffffffffffffffffffffffffffffff8216611f0457348360a0015114611ef1576040517f44e8bd2c00000000000000000000000000000000000000000000000000000000815260040160405180910390fd5b611eff818460a00151612ad3565b610f71565b60a0830151610f719073ffffffffffffffffffffffffffffffffffffffff841690339084906124c4565b60008560c001515167ffffffffffffffff811115611f4e57611f4e613418565b604051908082528060200260200182016040528015611f9357816020015b6040805180820190915260008082526020820152815260200190600190039081611f6c5790505b50905060008660c001515167ffffffffffffffff811115611fb657611fb6613418565b604051908082528060200260200182016040528015611ffb57816020015b6040805180820190915260008082526020820152815260200190600190039081611fd45790505b50905060005b8760c00151518110156121005760405180604001604052806120328a60c0015184815181106116c4576116c4613fe7565b73ffffffffffffffffffffffffffffffffffffffff1681526020018960c00151838151811061206357612063613fe7565b60200260200101516020015181525083828151811061208457612084613fe7565b602002602001018190525060405180604001604052808573ffffffffffffffffffffffffffffffffffffffff1681526020018960c0015183815181106120cc576120cc613fe7565b6020026020010151602001518152508282815181106120ed576120ed613fe7565b6020908102919091010152600101612001565b5060006040518060600160405280848152602001868152602001896040015163ffffffff1681525090507f000000000000000000000000000000000000000000000000000000000000000073ffffffffffffffffffffffffffffffffffffffff1663fe8ec1a782848b600001516121768d6110a7565b604051806101c001604052806101a08152602001614c316101a091398d8d6040518863ffffffff1660e01b81526004016121b697969594939291906144d1565b600060405180830381600087803b1580156121d057600080fd5b505af11580156121e4573d6000803e3d6000fd5b505050505050505050505050565b60006060806122038486018661465d565b9250925092509250925092565b60008061221e868686612c32565b915091508161222e5750506122dd565b60008481526003602052604081207f534554544c45440000000000000000000000000000000000000000000000000090556122688461241b565b90506000612279836040015161241b565b905061228a81838560800151612e32565b6040805187815273ffffffffffffffffffffffffffffffffffffffff841660208201527fa569bfd2e3bd9bd14cfdabad61aef5f3d5b18b0fcdf78805e65349dda2210fbc910160405180910390a1505050505b50505050565b6000806122f1858585612c32565b9150915081612301575050505050565b60008381526003602052604081207f524546554e4445440000000000000000000000000000000000000000000000009055815161233d9061241b565b9050600061234e836040015161241b565b905061235f81838560800151612e32565b6040805186815273ffffffffffffffffffffffffffffffffffffffff841660208201527f5e9f0820fcfb53b644becb775b651bae68c337106f21433e526551d1e02c1c0e910160405180910390a150505050505050565b6122dd6123dc836000815181106123cf576123cf613fe7565b6020026020010151612623565b60e00151858580806020026020016040519081016040528093929190818152602001838360200280828437600092019190915250869250612e78915050565b600073ffffffffffffffffffffffffffffffffffffffff8211156124c0576040517f08c379a0000000000000000000000000000000000000000000000000000000008152602060048201526024808201527f5479706543617374733a2062797465733332546f41646472657373206f76657260448201527f666c6f770000000000000000000000000000000000000000000000000000000060648201526084016119f9565b5090565b60405173ffffffffffffffffffffffffffffffffffffffff808516602483015283166044820152606481018290526122dd9085907f23b872dd00000000000000000000000000000000000000000000000000000000906084015b60408051601f198184030181529190526020810180517bffffffffffffffffffffffffffffffffffffffffffffffffffffffff167fffffffff0000000000000000000000000000000000000000000000000000000090931692909217909152612fc7565b600061077c8260c001518360e001516125c0565b611a4c611a0b836000815181106125af576125af613fe7565b602002602001015160e00151612623565b60006125ca6130d6565b8314612605576040517f8703f772000000000000000000000000000000000000000000000000000000008152600481018490526024016119f9565b600061261083612623565b905061261b81612aba565b949350505050565b604080516101808101825260008082526020820181905291810182905260608082018390526080820183905260a0820183905260c0820183905260e082018390526101008201839052610120820183905261014082019290925261016081019190915260008280602001905181019061269c919061477a565b9392505050565b612710604051806101000160405280600073ffffffffffffffffffffffffffffffffffffffff16815260200160008152602001600063ffffffff168152602001600063ffffffff168152602001600080191681526020016060815260200160608152602001606081525090565b60008061271b6130d6565b8814612756576040517f8703f772000000000000000000000000000000000000000000000000000000008152600481018990526024016119f9565b600061276185612623565b90507f000000000000000000000000000000000000000000000000000000000000000063ffffffff168160e0015163ffffffff16146127da5760e08101516040517f56632acd00000000000000000000000000000000000000000000000000000000815263ffffffff90911660048201526024016119f9565b63ffffffff861661014082015273ffffffffffffffffffffffffffffffffffffffff88168152604080516001808252818301909252600091816020015b6040805160808101825260008082526020808301829052928201819052606082015282527fffffffffffffffffffffffffffffffffffffffffffffffffffffffffffffffff9092019101816128175790505090506040518060800160405280836060015181526020018360a001518152602001836101200151815260200183610100015163ffffffff16815250816000815181106128b7576128b7613fe7565b6020908102919091010152604080516001808252818301909252600091816020015b6040805160808101825260008082526020808301829052928201819052606082015282527fffffffffffffffffffffffffffffffffffffffffffffffffffffffffffffffff9092019101816128d9579050509050604051806080016040528084604001518152602001846080015181526020016000801b81526020018460e0015163ffffffff168152508160008151811061297657612976613fe7565b6020908102919091010152604080516001808252818301909252600091816020015b60408051606080820183526000808352602083015291810191909152815260200190600190039081612998579050509050604051806060016040528085610100015163ffffffff16815260200185610120015181526020016129f986613102565b81525081600081518110612a0f57612a0f613fe7565b6020026020010181905250612a2384612aba565b95506040518061010001604052808c73ffffffffffffffffffffffffffffffffffffffff168152602001612a747f000000000000000000000000000000000000000000000000000000000000000090565b63ffffffff90811682529b8c16602082015299909a1660408a015260608901869052608089019290925260a088015260c096870152909401519497909650939450505050565b6000612ac582613102565b805190602001209050919050565b80471015612b3d576040517f08c379a000000000000000000000000000000000000000000000000000000000815260206004820152601d60248201527f416464726573733a20696e73756666696369656e742062616c616e636500000060448201526064016119f9565b60008273ffffffffffffffffffffffffffffffffffffffff168260405160006040518083038185875af1925050503d8060008114612b97576040519150601f19603f3d011682016040523d82523d6000602084013e612b9c565b606091505b5050905080612c2d576040517f08c379a000000000000000000000000000000000000000000000000000000000815260206004820152603a60248201527f416464726573733a20756e61626c6520746f2073656e642076616c75652c207260448201527f6563697069656e74206d6179206861766520726576657274656400000000000060648201526084016119f9565b505050565b604080516101808101825260008082526020820181905291810182905260608082018390526080820183905260a0820183905260c0820183905260e08201839052610100820183905261012082018390526101408201839052610160820152604080516101808101825260008082526020820181905291810182905260608082018390526080820183905260a0820183905260c0820183905260e08201839052610100820183905261012082018390526101408201929092526101608101919091526000848152600360205260409020547f4f50454e4544000000000000000000000000000000000000000000000000000014612d3457600092509050612e2a565b60008481526001602052604081208054612d4d906140ac565b80601f0160208091040260200160405190810160405280929190818152602001828054612d79906140ac565b8015612dc65780601f10612d9b57610100808354040283529160200191612dc6565b820191906000526020600020905b815481529060010190602001808311612da957829003601f168201915b5050505050806020019051810190612dde9190614872565b915050612dea81612623565b91508663ffffffff1682610100015163ffffffff16141580612e1157508582610120015114155b15612e225750600092509050612e2a565b506001925090505b935093915050565b73ffffffffffffffffffffffffffffffffffffffff8316612e5757612c2d8282612ad3565b612c2d73ffffffffffffffffffffffffffffffffffffffff8416838361312b565b60003063890affa18533612e8c8787613181565b604051602401612e9e939291906148b9565b60408051601f19818403018152918152602080830180517bffffffffffffffffffffffffffffffffffffffffffffffffffffffff1660e09590951b9490941790935263ffffffff88166000908152606484528181205481526063909352918290205491517f7056f41f00000000000000000000000000000000000000000000000000000000815290935073ffffffffffffffffffffffffffffffffffffffff7f000000000000000000000000000000000000000000000000000000000000000081169350637056f41f92612f7d928992919091169086906004016148de565b6020604051808303816000875af1158015612f9c573d6000803e3d6000fd5b505050506040513d601f19601f82011682018060405250810190612fc09190614328565b5050505050565b6000613029826040518060400160405280602081526020017f5361666545524332303a206c6f772d6c6576656c2063616c6c206661696c65648152508573ffffffffffffffffffffffffffffffffffffffff1661318f9092919063ffffffff16565b905080516000148061304a57508080602001905181019061304a9190614919565b612c2d576040517f08c379a000000000000000000000000000000000000000000000000000000000815260206004820152602a60248201527f5361666545524332303a204552433230206f7065726174696f6e20646964206e60448201527f6f7420737563636565640000000000000000000000000000000000000000000060648201526084016119f9565b60006040516020016130e790614936565b60405160208183030381529060405280519060200120905090565b6060816040516020016131159190614b2c565b6040516020818303038152906040529050919050565b60405173ffffffffffffffffffffffffffffffffffffffff8316602482015260448101829052612c2d9084907fa9059cbb000000000000000000000000000000000000000000000000000000009060640161251e565b606061269c6001848461319e565b606061261b84846000856131cd565b60608383836040516020016131b593929190614be7565b60405160208183030381529060405290509392505050565b60608247101561325f576040517f08c379a000000000000000000000000000000000000000000000000000000000815260206004820152602660248201527f416464726573733a20696e73756666696369656e742062616c616e636520666f60448201527f722063616c6c000000000000000000000000000000000000000000000000000060648201526084016119f9565b6000808673ffffffffffffffffffffffffffffffffffffffff1685876040516132889190614c14565b60006040518083038185875af1925050503d80600081146132c5576040519150601f19603f3d011682016040523d82523d6000602084013e6132ca565b606091505b50915091506132db878383876132e6565b979650505050505050565b6060831561337c5782516000036133755773ffffffffffffffffffffffffffffffffffffffff85163b613375576040517f08c379a000000000000000000000000000000000000000000000000000000000815260206004820152601d60248201527f416464726573733a2063616c6c20746f206e6f6e2d636f6e747261637400000060448201526064016119f9565b508161261b565b61261b83838151156133915781518083602001fd5b806040517f08c379a00000000000000000000000000000000000000000000000000000000081526004016119f991906139ee565b803573ffffffffffffffffffffffffffffffffffffffff811681146133e957600080fd5b919050565b6000806040838503121561340157600080fd5b61340a836133c5565b946020939093013593505050565b7f4e487b7100000000000000000000000000000000000000000000000000000000600052604160045260246000fd5b6040516060810167ffffffffffffffff8111828210171561346a5761346a613418565b60405290565b6040516080810167ffffffffffffffff8111828210171561346a5761346a613418565b604051610100810167ffffffffffffffff8111828210171561346a5761346a613418565b604051610180810167ffffffffffffffff8111828210171561346a5761346a613418565b604051601f8201601f1916810167ffffffffffffffff8111828210171561350457613504613418565b604052919050565b600067ffffffffffffffff82111561352657613526613418565b5060051b60200190565b63ffffffff81168114611a0b57600080fd5b80356133e981613530565b600067ffffffffffffffff82111561356757613567613418565b50601f01601f191660200190565b600082601f83011261358657600080fd5b81356135996135948261354d565b6134db565b8181528460208386010111156135ae57600080fd5b816020850160208301376000918101602001919091529392505050565b6000606082840312156135dd57600080fd5b6135e5613447565b905081356135f281613530565b815260208281013590820152604082013567ffffffffffffffff81111561361857600080fd5b61362484828501613575565b60408301525092915050565b6000602080838503121561364357600080fd5b823567ffffffffffffffff8082111561365b57600080fd5b818501915085601f83011261366f57600080fd5b813561367d6135948261350c565b81815260059190911b8301840190848101908883111561369c57600080fd5b8585015b838110156136d4578035858111156136b85760008081fd5b6136c68b89838a01016135cb565b8452509186019186016136a0565b5098975050505050505050565b600061010082840312156136f457600080fd5b50919050565b60008083601f84011261370c57600080fd5b50813567ffffffffffffffff81111561372457600080fd5b60208301915083602082850101111561373c57600080fd5b9250929050565b60008060006040848603121561375857600080fd5b833567ffffffffffffffff8082111561377057600080fd5b61377c878388016136e1565b9450602086013591508082111561379257600080fd5b5061379f868287016136fa565b9497909650939450505050565b60008151808452602080850194506020840160005b838110156137ff57815180518852602080820151908901526040808201519089015260609081015190880152608087019650908201906001016137c1565b509495945050505050565b60005b8381101561382557818101518382015260200161380d565b50506000910152565b6000815180845261384681602086016020860161380a565b601f01601f19169290920160200192915050565b600082825180855260208086019550808260051b84010181860160005b848110156138c557858303601f1901895281518051845284810151858501526040908101516060918501829052906138b18186018361382e565b9a86019a9450505090830190600101613877565b5090979650505050505050565b602081526138f960208201835173ffffffffffffffffffffffffffffffffffffffff169052565b602082015160408201526000604083015161391c606084018263ffffffff169052565b50606083015163ffffffff8116608084015250608083015160a083015260a08301516101008060c08501526139556101208501836137ac565b915060c0850151601f19808685030160e087015261397384836137ac565b935060e0870151915080868503018387015250613990838261385a565b9695505050505050565b6000602082840312156139ac57600080fd5b5035919050565b6000602082840312156139c557600080fd5b813567ffffffffffffffff8111156139dc57600080fd5b82016060818503121561269c57600080fd5b60208152600061269c602083018461382e565b600080600080600060608688031215613a1957600080fd5b85359450602086013567ffffffffffffffff80821115613a3857600080fd5b613a4489838a016136fa565b90965094506040880135915080821115613a5d57600080fd5b50613a6a888289016136fa565b969995985093965092949392505050565b600080600080600060608688031215613a9357600080fd5b853567ffffffffffffffff80821115613aab57600080fd5b613ab789838a016136e1565b96506020880135915080821115613a3857600080fd5b60008060008060608587031215613ae357600080fd5b8435613aee81613530565b935060208501359250604085013567ffffffffffffffff811115613b1157600080fd5b613b1d878288016136fa565b95989497509550505050565b604081526000613b3c604083018561382e565b8281036020840152613b4e818561382e565b95945050505050565b600082601f830112613b6857600080fd5b81356020613b786135948361350c565b82815260079290921b84018101918181019086841115613b9757600080fd5b8286015b84811015613bea5760808189031215613bb45760008081fd5b613bbc613470565b8135815284820135858201526040808301359082015260608083013590820152835291830191608001613b9b565b509695505050505050565b600082601f830112613c0657600080fd5b81356020613c166135948361350c565b82815260059290921b84018101918181019086841115613c3557600080fd5b8286015b84811015613bea57803567ffffffffffffffff80821115613c5a5760008081fd5b8189019150606080601f19848d03011215613c755760008081fd5b613c7d613447565b838801358152604080850135828a0152918401359183831115613ca05760008081fd5b613cae8d8a85880101613575565b908201528652505050918301918301613c39565b600060208284031215613cd457600080fd5b813567ffffffffffffffff80821115613cec57600080fd5b908301906101008286031215613d0157600080fd5b613d09613493565b613d12836133c5565b815260208301356020820152613d2a60408401613542565b6040820152613d3b60608401613542565b60608201526080830135608082015260a083013582811115613d5c57600080fd5b613d6887828601613b57565b60a08301525060c083013582811115613d8057600080fd5b613d8c87828601613b57565b60c08301525060e083013582811115613da457600080fd5b613db087828601613bf5565b60e08301525095945050505050565b60008060408385031215613dd257600080fd5b82359150613de2602084016133c5565b90509250929050565b600060208284031215613dfd57600080fd5b61269c826133c5565b60008060208385031215613e1957600080fd5b823567ffffffffffffffff80821115613e3157600080fd5b818501915085601f830112613e4557600080fd5b813581811115613e5457600080fd5b8660208260051b8501011115613e6957600080fd5b60209290920196919550909350505050565b60006101008284031215613e8e57600080fd5b613e96613493565b9050613ea1826133c5565b8152613eaf602083016133c5565b60208201526040820135604082015260608201356060820152613ed460808301613542565b6080820152613ee560a08301613542565b60a082015260c082013560c082015260e082013567ffffffffffffffff811115613f0e57600080fd5b613f1a84828501613575565b60e08301525092915050565b60006020808385031215613f3957600080fd5b823567ffffffffffffffff80821115613f5157600080fd5b818501915085601f830112613f6557600080fd5b8135613f736135948261350c565b81815260059190911b83018401908481019088831115613f9257600080fd5b8585015b838110156136d457803585811115613fae5760008081fd5b613fbc8b89838a0101613e7b565b845250918601918601613f96565b600060208284031215613fdc57600080fd5b813561269c81613530565b7f4e487b7100000000000000000000000000000000000000000000000000000000600052603260045260246000fd5b8082018082111561077c577f4e487b7100000000000000000000000000000000000000000000000000000000600052601160045260246000fd5b60008151808452602080850194506020840160005b838110156137ff57815187529582019590820190600101614065565b60208152600061269c6020830184614050565b600061077c3683613e7b565b600061077c36836135cb565b600181811c908216806140c057607f821691505b6020821081036136f4577f4e487b7100000000000000000000000000000000000000000000000000000000600052602260045260246000fd5b601f821115612c2d576000816000526020600020601f850160051c810160208610156141225750805b601f850160051c820191505b818110156141415782815560010161412e565b505050505050565b815167ffffffffffffffff81111561416357614163613418565b6141778161417184546140ac565b846140f9565b602080601f8311600181146141ca57600084156141945750858301515b7fffffffffffffffffffffffffffffffffffffffffffffffffffffffffffffffff600386901b1c1916600185901b178555614141565b600085815260208120601f198616915b828110156141f9578886015182559484019460019091019084016141da565b508582101561423557878501517fffffffffffffffffffffffffffffffffffffffffffffffffffffffffffffffff600388901b60f8161c191681555b5050505050600190811b01905550565b818352818160208501375060006020828401015260006020601f19601f840116840101905092915050565b85815260606020820152600061428a606083018688614245565b828103604084015261429d818587614245565b98975050505050505050565b60008083357fffffffffffffffffffffffffffffffffffffffffffffffffffffffffffffffe18436030181126142de57600080fd5b83018035915067ffffffffffffffff8211156142f957600080fd5b60200191503681900382131561373c57600080fd5b838152604060208201526000613b4e604083018486614245565b60006020828403121561433a57600080fd5b5051919050565b60006101008a835273ffffffffffffffffffffffffffffffffffffffff8a16602084015288604084015263ffffffff80891660608501528088166080850152508060a0840152614393818401876137ac565b905082810360c08401526143a781866137ac565b905082810360e08401526143bb818561385a565b9b9a5050505050505050505050565b60008282518085526020808601955060208260051b8401016020860160005b848110156138c557601f1986840301895261440583835161382e565b988401989250908301906001016143e9565b6040815282604082015260007f07ffffffffffffffffffffffffffffffffffffffffffffffffffffffffffffff84111561445057600080fd5b8360051b80866060850137820182810360609081016020850152613990908201856143ca565b60008151808452602080850194506020840160005b838110156137ff576144be878351805173ffffffffffffffffffffffffffffffffffffffff168252602090810151910152565b604096909601959082019060010161448b565b60c08152600061012082018951606060c0850152818151808452610140860191506020935060208301925060005b8181101561454557614532838551805173ffffffffffffffffffffffffffffffffffffffff168252602090810151910152565b92840192604092909201916001016144ff565b505060208c015160e086015260408c0151610100860152848103602086015261456e818c614476565b92505050614594604084018973ffffffffffffffffffffffffffffffffffffffff169052565b86606084015282810360808401526145ac818761382e565b905082810360a08401526145c1818587614245565b9a9950505050505050505050565b8015158114611a0b57600080fd5b600082601f8301126145ee57600080fd5b813560206145fe6135948361350c565b82815260059290921b8401810191818101908684111561461d57600080fd5b8286015b84811015613bea57803567ffffffffffffffff8111156146415760008081fd5b61464f8986838b0101613575565b845250918301918301614621565b60008060006060848603121561467257600080fd5b833561467d816145cf565b925060208481013567ffffffffffffffff8082111561469b57600080fd5b818701915087601f8301126146af57600080fd5b81356146bd6135948261350c565b81815260059190911b8301840190848101908a8311156146dc57600080fd5b938501935b828510156146fa578435825293850193908501906146e1565b96505050604087013592508083111561471257600080fd5b5050614720868287016145dd565b9150509250925092565b80516133e981613530565b600082601f83011261474657600080fd5b81516147546135948261354d565b81815284602083860101111561476957600080fd5b61261b82602083016020870161380a565b60006020828403121561478c57600080fd5b815167ffffffffffffffff808211156147a457600080fd5b9083019061018082860312156147b957600080fd5b6147c16134b7565b825181526020830151602082015260408301516040820152606083015160608201526080830151608082015260a083015160a082015260c083015160c082015261480d60e0840161472a565b60e082015261010061482081850161472a565b90820152610120838101519082015261014061483d81850161472a565b90820152610160838101518381111561485557600080fd5b61486188828701614735565b918301919091525095945050505050565b6000806040838503121561488557600080fd5b82519150602083015167ffffffffffffffff8111156148a357600080fd5b6148af85828601614735565b9150509250929050565b63ffffffff84168152826020820152606060408201526000613b4e606083018461382e565b63ffffffff8416815273ffffffffffffffffffffffffffffffffffffffff83166020820152606060408201526000613b4e606083018461382e565b60006020828403121561492b57600080fd5b815161269c816145cf565b7f4f7264657244617461280000000000000000000000000000000000000000000081527f627974657333322073656e6465722c0000000000000000000000000000000000600a8201527f6279746573333220726563697069656e742c000000000000000000000000000060198201527f6279746573333220696e707574546f6b656e2c00000000000000000000000000602b8201527f62797465733332206f7574707574546f6b656e2c000000000000000000000000603e8201527f75696e7432353620616d6f756e74496e2c00000000000000000000000000000060528201527f75696e7432353620616d6f756e744f75742c000000000000000000000000000060638201527f75696e743235362073656e6465724e6f6e63652c00000000000000000000000060758201527f75696e743332206f726967696e446f6d61696e2c00000000000000000000000060898201527f75696e7433322064657374696e6174696f6e446f6d61696e2c00000000000000609d8201527f627974657333322064657374696e6174696f6e536574746c65722c000000000060b68201527f75696e7433322066696c6c446561646c696e652c00000000000000000000000060d18201527f627974657320646174612900000000000000000000000000000000000000000060e5820152600060f0820161077c565b6020815281516020820152602082015160408201526040820151606082015260608201516080820152608082015160a082015260a082015160c082015260c082015160e0820152600060e0830151610100614b8e8185018363ffffffff169052565b8401519050610120614ba78482018363ffffffff169052565b840151610140848101919091528401519050610160614bcd8185018363ffffffff169052565b84015161018084810152905061261b6101a084018261382e565b8315158152606060208201526000614c026060830185614050565b828103604084015261399081856143ca565b60008251614c2681846020870161380a565b919091019291505056fe5265736f6c76656443726f7373436861696e4f72646572207769746e657373295265736f6c76656443726f7373436861696e4f72646572286164647265737320757365722c2075696e743634206f726967696e436861696e49642c2075696e743332206f70656e446561646c696e652c2075696e7433322066696c6c446561646c696e652c204f75747075745b5d206d61785370656e742c204f75747075745b5d206d696e52656365697665642c2046696c6c496e737472756374696f6e5b5d2066696c6c496e737472756374696f6e73294f7574707574286279746573333220746f6b656e2c2075696e7432353620616d6f756e742c206279746573333220726563697069656e742c2075696e74363420636861696e49642946696c6c496e737472756374696f6e2875696e7436342064657374696e6174696f6e436861696e49642c20627974657333322064657374696e6174696f6e536574746c65722c206279746573206f726967696e4461746129546f6b656e5065726d697373696f6e73286164647265737320746f6b656e2c75696e7432353620616d6f756e7429a2646970667358221220d25ff3c563d32332e6f2ebf100d7aa7659b2a311ef13e14961f5ec3843dd510864736f6c63430008190033",
  "linkReferences": {},
  "deployedLinkReferences": {}
}